S015000046696E616C2050726F6A6563742E737265632E
S113000071C000008EC0000012C200008AC000004F
S11300101FC20000FDC1000084C0000082C00000B7
S113002080C000007EC000007CC000007AC00000D8
S113003078C0000076C0000074C0000072C00000E8
S113004070C000006EC000006CC000006AC00000F8
S113005068C0000066C0000064C0000062C0000008
S113006060C000005EC000005CC000005AC0000018
S113007058C00000FCC1000054C0000052C0000081
S113008050C000004EC000004CC000004AC0000038
S113009048C0000046C0000044C0000042C0000048
S11300A040C000003EC000003CC000003AC0000058
S11300B038C0000036C0000034C0000032C0000068
S11300C030C000002EC000002CC000002AC0000078
S11300D028C0000026C0000024C0000022C0000088
S11300E020C0000011241FBECFEFD1E2DEBFCDBF80
S11300F000E00CBF12E0A0E0B2E0E0EBFCE000E0C6
S11301000BBF02C007900D92A036B107D9F722E0C9
S1130110A0E6B2E001C01D92A539B207E1F763D3AE
S1130120C5C5BBC287B1807F87B988B1806288B9F1
S113013088B18F7B88B982E08A95F1F700C088B1D5
S1130140806888B992E09A95F1F700C086B18295EB
S1130150807F92E09A95F1F700C098B19F7798B9A3
S113016095E09A95F1F7000098B1906898B992E0FB
S11301709A95F1F700C096B1807892E09A95F1F7DC
S113018000C098B19F7798B995E09A95F1F700006F
S11301908111D5CF88B18F7D88B987B18F6087B938
S11301A00895282F22952F708F70611104C098B183
S11301B09F7B98B903C098B1906498B992E09A95DE
S11301C0F1F700C098B1906898B998B1907F922BDC
S11301D098B995E09A95F1F7000098B19F7798B98E
S11301E095E09A95F1F7000098B1906898B998B1A4
S11301F0907F892B88B985E08A95F1F7000088B152
S11302008F7788B995E09A95F1F700008BCF089520
S1130210CF93C82F2FEF86E791E021508040904084
S1130220E1F700C0000087B18F6087B987B18068AB
S113023087B987B1806487B987B1806287B988B18B
S1130240807F88B988B18F7788B988B18F7D88B964
S113025088B18F7B88B900C000C0000088B1806875
S113026088B988B1826088B925E02A95F1F7000041
S113027088B18F7788B985E08A95F1F7000052DF5D
S113028060E08C2F8C608DDF60E088E28ADFCF91A4
S11302900895CF93DF93EC0103C061E082DF2196E0
S11302A088818111FACFDF91CF910895EF92FF9267
S11302B00F931F93CF93DF9300D01F921F92CDB75C
S11302C0DEB77B01FE01319625E0DF011D922A9500
S11302D0E9F724E030E00EC06AE070E09FD3E1E08B
S11302E0F0E0EC0FFD1FE20FF31F8083862F972FA2
S11302F021503109009781F7BFEFEB16FB0681F41B
S113030003C00F5F1F4F02C000E010E0E1E0F0E027
S1130310EC0FFD1FE00FF11F2081222391F304C095
S113032005E010E00E191F09992384F461E08DE2C1
S113033038DF0CC0E1E0F0E0EC0FFD1FE00FF11F2F
S1130340808161E0805D2DDF0F5F1F4F0530110557
S11303508CF30F900F900F900F900F90DF91CF912F
S11303601F910F91FF90EF900895883228F4611146
S1130370806460E0806815CF0895FC0111821082CA
S1130380FB01118210820895CF93DF93EC0180E189
S113039090E06BD399838883FC0117861686DF91DE
S11303A0CF910895DB01ED91FC91309761F0DA0172
S11303B08D919C911197978786878D919C91FB01D4
S11303C0918380830895DA012D913C911197FC016A
S11303D0318320838D919C91DB018D939C930895AF
S11303E0FC0180819181DA018D939C93A081B1817C
S11303F0109731F01E968D919C911F979183808365
S113040080819181892B19F4FB0111821082089556
S11304101F920F920FB60F9211248F9382E0809354
S11304207A028F910F900FBE0F901F9018951F9214
S11304300F920FB60F9211248F9388E785B983E04A
S113044080937A028F910F900FBE0F901F90189592
S11304501F920F920FB60F9211248F9384E0809312
S11304607A028F910F900FBE0F901F9018951F92D4
S11304700F920FB60F9211240BB60F922F933F9346
S11304804F935F936F937F938F939F93AF93BF9398
S1130490EF93FF938091780090E090939002809383
S11304A08F028091790090E090937C0280937B028C
S11304B080917B0290917C02982F882720918F0253
S11304C030919002822B932B909365028093640267
S11304D020916402309165028091660290916702D6
S11304E02817390740F48091640290916502909333
S11304F0670280936602649B06C0EAE7F0E08081AD
S113050080648083B7C020913002309131028091A1
S113051066029091670282179307F0F420913202E9
S1130520309133028091660290916702281739074F
S113053098F4A0918D02B0918E028EE0E0E3F2E097
S113054001900D928A95E1F74DE852E06CE672E075
S113055080E792E027DF8EC02091140230911502CB
S1130560809166029091670282179307F0F42091BC
S11305701602309117028091660290916702281743
S1130580390798F4A0918D02B0918E028EE0E4E1D7
S1130590F2E001900D928A95E1F74DE852E06CE6A5
S11305A072E080E792E0FEDE65C0209106023091A1
S11305B00702809166029091670282179307F0F414
S11305C0209108023091090280916602909167029D
S11305D02817390798F4A0918D02B0918E028EE00D
S11305E0E6E0F2E001900D928A95E1F74DE852E0E1
S11305F06CE672E080E792E0D5DE3CC020912202F6
S113060030912302809166029091670282179307CA
S1130610F0F4209124023091250280916602909199
S113062067022817390798F4A0918D02B0918E02C1
S11306308EE0E2E2F2E001900D928A95E1F74DE856
S113064052E06CE672E080E792E0ACDE13C060E05A
S113065081E0A7DD60E080E088DE86E492E019DED8
S113066061E080E082DE809166029091670264E03E
S113067070E01CDEFF91EF91BF91AF919F918F913C
S11306807F916F915F914F913F912F910F900BBE8E
S11306900F900FBE0F901F9018951F920F920FB6D8
S11306A00F9211240F900FBE0F901F901895E1E840
S11306B0F0E020812860208328EE33E03093890025
S11306C020938800109285001092840026B3226043
S11306D026BB20E030E007C0B19B05C046B34260B2
S11306E046BB2F5F3F4F28173907B4F3089584B5ED
S11306F0836084BD84B5806884BD85B5826085BD12
S113070080E887BD08950F931F93CF93DF93EC0187
S113071000E010E022C080916A0290916B02019681
S113072090936B0280936A0280916A0290916B02AB
S1130730049721F410926B0210926A02E0916A020B
S1130740F0916B02EE0FFF1FE25CFD4F808182B9D6
S113075084E190E0ACDF0F5F1F4F0C171D07DCF244
S11307601092610210926002DF91CF911F910F915C
S113077008950F931F93CF93DF93EC0100E010E0F3
S113078024C080916A0290916B02019790936B024E
S113079080936A0280916A0290916B02019631F40F
S11307A083E090E090936B0280936A02E0916A0286
S11307B0F0916B02EE0FFF1FE25CFD4F808182B966
S11307C084E190E074DF0F5F1F4F0C171D07CCF21C
S11307D081E090E09093610280936002DF91CF9179
S11307E01F910F910895E1E6F0E080E8808381E0B5
S11307F0808382E08093810010927A0211B810BA4B
S11308008FEF87B984B91AB872DF83E001DD60E045
S113081081E0C7DCF8948DB384608DBBE9E6F0E039
S11308208081806280838DB388608DBB8081806C81
S113083080838DB382608DBB8081886080838DB31B
S113084080618DBBEAE6F0E08081836080838DB3B4
S113085080628DBB808188608083EAE7F0E08081DC
S113086080688083808188608083ECE7F0E0808109
S113087080648083109269021092680210928E0242
S113088010928D026CE672E080E792E076DD8DE8EE
S113089092E07ADDA0918D02B0918E028EE0E0E3C9
S11308A0F2E001900D928A95E1F74DE852E06CE692
S11308B072E080E792E076DD10926B0210926A0299
S11308C081E090E0909361028093600260E069DCD3
S11308D060E080E04ADD83E592E0DBDC03C081E098
S11308E090E047DF4F99FBCF80E785B978948091FA
S11308F07A02833009F128F4813051F0823059F0C2
S1130900F6CF843009F473C0853009F484C0EFCF86
S113091010927A02ECCF8FEF93E09093670280936A
S113092066028DE892E030DDEAE7F0E080818064E1
S1130930808310927A02DBCF48E652E06CE672E0E4
S113094080E792E04DDD60E081E02BDC60E080E058
S11309500CDD89E592E09DDC61E080E006DDE0915C
S11309607002F091710261E070E0848595859EDCEF
S1130970E0917002F091710284859585843091052F
S113098039F482E390E0BFDE84E190E090DE25C09C
S11309908230910539F482E390E0EBDE84E190E06B
S11309A086DE1BC00397C9F48091600290916102B6
S11309B0019739F484E690E0DCDE84E190E077DEB0
S11309C00CC08091600290916102892B31F484E61D
S11309D090E099DE84E190E06ADE80E785B9809159
S11309E0680290916902D9D010927A0280CF88E28D
S11309F090E05DDE85B1803731F488E785B988E21F
S1130A0090E055DE05C080E785B988E290E04FDECE
S1130A1010927A026CCF80E090E0089597FB072E45
S1130A2016F4009406D077FD08D00BD007FC05D04F
S1130A303EF4909581959F4F0895709561957F4FF1
S1130A400895AA1BBB1B51E107C0AA1FBB1FA61711
S1130A50B70710F0A61BB70B881F991F5A95A9F763
S1130A6080959095BC01CD0108950F931F93CF936A
S1130A70DF938230910510F482E090E0E0919302DC
S1130A80F091940220E030E0A0E0B0E0309719F15A
S1130A90408151810281138148175907C8F0841796
S1130AA0950769F4109731F012960C9312971396E8
S1130AB01C9327C0009393021093940222C0211523
S1130AC0310519F04217530718F49A01BD01EF01DB
S1130AD0DF01F801DBCF21153105F9F0281B390BB3
S1130AE02430310580F48A819B816115710521F0E0
S1130AF0FB019383828304C09093940280939302B6
S1130B00FE01329644C0FE01E20FF31F81939193DC
S1130B1022503109398328833AC0209191023091BF
S1130B209202232B41F4209102023091030230936C
S1130B30920220939102209100023091010221152A
S1130B40310541F42DB73EB740910402509105029E
S1130B50241B350BE0919102F0919202E217F30706
S1130B60A0F42E1B3F0B2817390778F0AC014E5F19
S1130B705F4F2417350748F04E0F5F1F50939202C2
S1130B80409391028193919302C0E0E0F0E0CF01A1
S1130B90DF91CF911F910F910895CF93DF93009729
S1130BA009F481C0FC01329713821282A09193024E
S1130BB0B0919402109781F420813181820F931FA8
S1130BC020919102309192022817390751F5F09340
S1130BD09202E093910267C0ED0120E030E0CE176D
S1130BE0DF0740F44A815B819E0141155105F1F014
S1130BF0EA01F5CFD383C28340815181840F951FCD
S1130C00C817D90759F488819981840F951F0296D2
S1130C10918380838A819B8193838283211531050B
S1130C2029F4F0939402E09393023DC0E901FB831D
S1130C30EA8349915991C40FD51FEC17FD0761F45C
S1130C4080819181840F951F0296E901998388839D
S1130C50828193819B838A83E0E0F0E012968D91F8
S1130C609C911397009719F0FD01DC01F7CF8D914A
S1130C709C9111979D012E5F3F4F820F931F2091EE
S1130C809102309192022817390769F4309729F4B8
S1130C90109294021092930202C013821282B093B3
S1130CA09202A0939102DF91CF910895F894FFCF1F
S1130CB0000095022000C8000000030004000100A9
S1130CC002000100A303F802030004000100020073
S1130CD00200EE02D200020003000400010003003F
S1130CE00004CF03010002000300040000003600EA
S1130CF02E002D003500554E44455445524D494E65
S1130D0045440048656C6C6F004C696E65230000B7
S9030000FC
