:1000000071C000008FC000001BC20000FAC30000D6
:10001000C7C3000006C2000085C0000083C0000006
:1000200081C000007FC000007DC000007BC00000D8
:1000300079C0000077C0000075C0000073C00000E8
:1000400071C000006FC000006DC000006BC00000F8
:1000500069C0000067C0000065C0000063C0000008
:1000600061C000005FC000005DC000005BC0000018
:1000700059C000004CC2000055C0000053C0000031
:1000800017C200004FC000004DC000004BC0000070
:1000900049C0000047C0000045C0000043C0000048
:1000A00041C000003FC000003DC000003BC0000058
:1000B00039C0000037C0000035C0000033C0000068
:1000C00031C000002FC000002DC000002BC0000078
:1000D00029C0000027C0000025C0000023C0000088
:1000E00021C0000011241FBECFEFD1E2DEBFCDBF83
:1000F00000E00CBF12E0A0E0B2E0EEEAF3E100E0C5
:100100000BBF02C007900D92AA32B107D9F723E0C6
:10011000AAE2B2E001C01D92A139B207E1F73FD4D3
:100120000C94D50904C387B1807F87B988B18062F8
:1001300088B988B18F7B88B982E08A95F1F700C0D1
:1001400088B1806888B992E09A95F1F700C086B1CD
:100150008295807F92E09A95F1F700C098B19F77E1
:1001600098B995E09A95F1F7000098B1906898B920
:1001700092E09A95F1F700C096B1807892E09A9556
:10018000F1F700C098B19F7798B995E09A95F1F78B
:1001900000008111D5CF88B18F7D88B987B18F607C
:1001A00087B90895282F22952F708F70611104C090
:1001B00098B19F7B98B903C098B1906498B992E0C8
:1001C0009A95F1F700C098B1906898B998B1907F6E
:1001D000922B98B995E09A95F1F7000098B19F7726
:1001E00098B995E09A95F1F7000098B1906898B9A0
:1001F00098B1907F892B88B985E08A95F1F7000046
:1002000088B18F7788B995E09A95F1F700008BCF88
:100210000895CF93C82F2FEF86E791E021508040BB
:100220009040E1F700C0000087B18F6087B987B1C7
:10023000806887B987B1806487B987B1806287B9E0
:1002400088B1807F88B988B18F7788B988B18F7D70
:1002500088B988B18F7B88B900C000C0000088B120
:10026000806888B988B1826088B925E02A95F1F75D
:10027000000088B18F7788B985E08A95F1F7000092
:1002800052DF60E08C2F8C608DDF60E088E28ADFD7
:10029000CF910895CF93DF93EC0103C061E082DF3B
:1002A000219688818111FACFDF91CF910895EF9245
:1002B000FF920F931F93CF93DF9300D01F921F9253
:1002C000CDB7DEB77B01FE01319625E0DF011D923F
:1002D0002A95E9F724E030E00EC06AE070E01DD70F
:1002E000E1E0F0E0EC0FFD1FE20FF31F8083862FAB
:1002F000972F21503109009781F7BFEFEB16FB06CE
:1003000081F403C00F5F1F4F02C000E010E0E1E086
:10031000F0E0EC0FFD1FE00FF11F2081222391F38D
:1003200004C005E010E00E191F09992384F461E070
:100330008DE238DF0CC0E1E0F0E0EC0FFD1FE00FD4
:10034000F11F808161E0805D2DDF0F5F1F4F053061
:1003500011058CF30F900F900F900F900F90DF917D
:10036000CF911F910F91FF90EF900895883228F45C
:100370006111806460E0806815CF0895FC011182EE
:100380001082FB01118210820895CF93DF93EC015C
:1003900084E090E0E9D699838883FC01138212827D
:1003A000DF91CF910895DB01ED91FC91309761F0E1
:1003B000DA018D919C911197938382838D919C9109
:1003C000FB01918380830895DA012D913C9111976F
:1003D000FC01318320838D919C91DB018D939C9353
:1003E0000895FC0180819181DA018D939C93A08115
:1003F000B181109731F012968D919C911397918352
:10040000808380819181892B19F4FB0111821082F4
:100410000895FC012081318181E0232B09F080E0E7
:1004200008951F920F920FB60F9211248F9382E0BE
:100430008093B6028F910F900FBE0F901F9018956A
:100440001F920F920FB60F9211240BB60F922F939B
:100450003F934F935F936F937F938F939F93AF934C
:10046000BF93EF93FF9384E492E0D3DF813019F4DC
:100470001092B6020AC084E492E0CBDF811105C07D
:1004800088E785B983E08093B602FF91EF91BF9131
:10049000AF919F918F917F916F915F914F913F911C
:1004A0002F910F900BBE0F900FBE0F901F901895BD
:1004B0001F920F920FB60F9211240BB60F922F932B
:1004C0003F934F935F936F937F938F939F93AF93DC
:1004D000BF93EF93FF9360E081E064DE8EE092E0F3
:1004E000D9DE85E08093B602FF91EF91BF91AF9185
:1004F0009F918F917F916F915F914F913F912F913C
:100500000F900BBE0F900FBE0F901F9018951F926B
:100510000F920FB60F9211240BB60F922F933F93A9
:100520004F935F936F937F938F939F93AF93BF93FB
:10053000EF93FF938091780090E09093C2028093B4
:10054000C1028091790090E09093B8028093B70245
:100550008091B7029091B802982F88272091C1020C
:100560003091C202822B932B9093390280933802F0
:10057000209138023091390280913A0290913B02E9
:100580002817390740F480913802909139029093EE
:100590003B0280933A02649B06C0EAE7F0E0808168
:1005A00080648083B1C080913A0290913B0284368E
:1005B000910530F560E081E0F5DD61E080E0D6DEB8
:1005C00080913A0290913B0264E070E070DEE0912D
:1005D000BF02F091C00283E090E0918380834FEBF3
:1005E00052E060E472E084E492E0DDDE8091320269
:1005F000909133020196909333028093320284C02B
:1006000080913A0290913B028A38924030F560E046
:1006100081E0C8DD61E080E0A9DE80913A0290913E
:100620003B0264E070E043DEE091BF02F091C00263
:1006300081E090E0918380834FEB52E060E472E0D0
:1006400084E492E0B0DE8091320290913302019610
:10065000909333028093320257C080913A02909176
:100660003B02823A934030F560E081E09BDD61E03F
:1006700080E07CDE80913A0290913B0264E070E081
:1006800016DEE091BF02F091C00282E090E091831B
:1006900080834FEB52E060E472E084E492E083DE1A
:1006A00080913202909133020196909333028093AD
:1006B00032022AC080913A0290913B028115944007
:1006C00018F560E081E06EDD61E080E04FDE809152
:1006D0003A0290913B0264E070E0E9DDE091BF02F4
:1006E000F091C002118210824FEB52E060E472E0A0
:1006F00084E492E058DE80913202909133020196B8
:100700009093330280933202FF91EF91BF91AF91AA
:100710009F918F917F916F915F914F913F912F9119
:100720000F900BBE0F900FBE0F901F9018951F9249
:100730000F920FB60F9211240F900FBE0F901F90C3
:100740001895E1E9F0E08081886080838081856090
:1007500080838BE197EB909399008093980010929F
:10076000950010929400E1E7F0E080818260808340
:1007700008959C01E1E8F0E09081986090833093C7
:1007800089002093880086B3826086BB1092850022
:1007900010928400B19BFECF86B3826086BB089521
:1007A0001F920F920FB60F9211240BB60F922F9338
:1007B0003F934F935F936F937F938F939F93AF93E9
:1007C000BF93EF93FF9380E29EE4D3DF84E08093B6
:1007D000B6024B99FECF80E29EE4CBDFFF91EF9112
:1007E000BF91AF919F918F917F916F915F914F9149
:1007F0003F912F910F900BBE0F900FBE0F901F9047
:1008000018951F920F920FB60F9211240BB60F92EC
:100810002F933F934F935F936F937F938F939F9308
:10082000AF93BF93EF93FF9380E29EE4A2DF89DF53
:100830001092B602FF91EF91BF91AF919F918F916E
:100840007F916F915F914F913F912F910F900BBED0
:100850000F900FBE0F901F90189584B5836084BDD4
:1008600084B5806884BD85B5826085BD83EB87BD16
:1008700008950F931F93CF93DF938C01C0E0D0E0D6
:1008800035C080913E0290913F02019690933F02C5
:1008900080933E0280913E0290913F02049721F4A2
:1008A00010923F0210923E02E0913E02F0913F0210
:1008B000EE0FFF1FEA5FFD4F808182B90233110501
:1008C00049F4FE01EE0FFF1FE85BFD4F808191812F
:1008D00050DF0BC00436110541F4FE01EE0FFF1F7F
:1008E000ED53FD4F8081918144DF2196C017D107E0
:1008F00044F21092350210923402DF91CF911F9191
:100900000F9108950F931F93CF93DF938C01C0E055
:10091000D0E037C080913E0290913F0201979093C2
:100920003F0280933E0280913E0290913F020196E9
:1009300031F483E090E090933F0280933E02E09197
:100940003E02F0913F02EE0FFF1FEA5FFD4F8081F4
:1009500082B90233110549F4FE01EE0FFF1FE85B77
:10096000FD4F8081918105DF0BC00436110541F4F4
:10097000FE01EE0FFF1FED53FD4F80819181F9DEE7
:100980002196C017D10734F281E090E090933502B0
:1009900080933402DF91CF911F910F9108950F93AF
:1009A0001F93CF93DF93E1E6F0E080E8808381E05E
:1009B000808382E0809381001092B60280E29EE400
:1009C00090934902809348029093C4028093C3029B
:1009D000C1E0D0E051C0CB30D105E4F4FE01319745
:1009E000EE0FFF1FE85BFD4F60817181072E000C49
:1009F000880B990B06D320E030E84BEB54E469D226
:100A00008E01000F111F085B1D4FC8D2F8017183C2
:100A1000608331C0C832D10584F4FE013197EE0FF6
:100A2000FF1FE85BFD4F80819181FE01EE0FFF1FEC
:100A3000E85BFD4F918380831EC0C832D105DCF096
:100A4000FE013197EE0FFF1FE85BFD4F6081718162
:100A5000072E000C880B990BD4D220E030E84BEB2A
:100A600054E438D28E01000F111F085B1D4F96D23F
:100A7000F801718360832196C333D1050CF4ABCFA9
:100A8000C1E0D0E051C0C531D105E4F4FE01319799
:100A9000EE0FFF1FED53FD4F60817181072E000C9B
:100AA000880B990BAED220E030E84BE354E411D22E
:100AB0008E01000F111F0D531D4F70D2F80171836D
:100AC000608331C0C035D10584F4FE013197EE0F4B
:100AD000FF1FED53FD4F80819181FE01EE0FFF1F3F
:100AE000ED53FD4F918380831EC0C035D105DCF0EE
:100AF000FE013197EE0FFF1FED53FD4F60817181B5
:100B0000072E000C880B990B7CD220E030E84BE3D9
:100B100054E4E0D18E01000F111F0D531D4F3ED242
:100B2000F801718360832196C536D1050CF4ABCFF3
:100B300011B810BA8FEF87B984B91AB88EDE83E086
:100B400068DB60E081E02EDBF8948DB384608DBBC0
:100B5000E9E6F0E08081806280838DB388608DBBA0
:100B60008081806C80838DB382608DBB8081886042
:100B700080838DB380618DBBEAE6F0E08081836085
:100B80008083EAE7F0E080818560808380818068EF
:100B90008083808188608083ECE7F0E080818064DE
:100BA000808310923D0210923C021092C00210927B
:100BB000BF0260E472E084E492E0E0DB8FEB92E05D
:100BC000E4DB1092470210924602789481E0809311
:100BD000B6028091B602833009F443C028F4813014
:100BE00051F0823069F1F5CF843009F4B8C0853016
:100BF00009F41BC1EECF10923F0210923E0281E039
:100C000090E0909335028093340206C081E090E03A
:100C100079DE80E29EE4ADDD4F99F8CFC0E0D0E010
:100C200007C081E090E06EDE80E29EE4A2DD2196C6
:100C3000C430D105B4F380E785B91092B602C9CFAC
:100C40008FEF93E090933B0280933A028FEB92E018
:100C50009CDBEAE7F0E08081806480831092B6023A
:100C6000B8CF4CE352E060E472E084E492E0B9DB98
:100C700080913202909133020197909333028093D6
:100C80003202E0913C02F0913D028081918190938B
:100C90003702809336020190F081E02DEE0FFF1FA6
:100CA000E65DFD4F808191810196918380838091E3
:100CB0004602909147022091360230913702821B02
:100CC000930B8130910521F08D3FFFEF9F0739F4A1
:100CD00082E390E0CEDD80E197E24BDD2CC08F3FD8
:100CE0002FEF920719F08330910539F482E390E0F9
:100CF00009DE80E197E23DDD1EC08230910511F0F2
:100D00000296C9F48091340290913502019739F42A
:100D100084E690E0F7DD80E197E22BDD0CC0809166
:100D2000340290913502892B31F484E690E0A1DD04
:100D300080E197E21EDDE0913C02F0913D0280816E
:100D40009181909347028093460280E785B9809114
:100D50003C0290913D02A0D21092B6023ACF85B1EA
:100D600090E09093BC028093BB028091BB02909173
:100D7000BC028037910509F050C088E785B960E072
:100D800081E010DA60E080E0F1DA88E192E082DA76
:100D900060E085E0EBDA8DE192E07CDA60E088E00B
:100DA000E5DA80E292E076DA60E08BE0DFDA83E297
:100DB00092E070DA60E08EE0D9DA86E292E06ADAF8
:100DC00061E080E0D3DA809132029091330262E0F8
:100DD00070E06DDA61E085E0C9DACAE2D2E062E093
:100DE00070E08881998163DA61E088E0BFDA62E0CF
:100DF00070E08A819B815BDA61E08BE0B7DA62E0C8
:100E000070E08E819F8153DA61E08EE0AFDA62E0BC
:100E100070E08C819D814BDA05C080E785B960E088
:100E200081E0C0D91092B602D4CE15B860E081E05E
:100E3000B9D960E080E09ADA88E192E02BDA60E0EC
:100E400085E094DA8DE192E025DA60E088E08EDAE0
:100E500080E292E01FDA60E08BE088DA83E292E0E1
:100E600019DA60E08EE082DA86E292E013DA61E07D
:100E700080E07CDA62E070E080E090E018DA61E027
:100E800085E074DACAE2D2E062E070E0888199819C
:100E90000EDA61E088E06ADA62E070E08A819B81C4
:100EA00006DA61E08BE062DA62E070E08E819F81B9
:100EB000FED961E08EE05ADA62E070E08C819D81BB
:100EC000F6D9F89480E090E0DF91CF911F910F91D7
:100ED00008955058BB27AA270ED0E5C0D6D030F0D1
:100EE000DBD020F031F49F3F11F41EF4CBC00EF4A0
:100EF000E095E7FBC1C0E92FE7D080F3BA1762079E
:100F000073078407950718F071F49EF5FFC00EF47F
:100F1000E0950B2EBA2FA02D0B01B90190010C0109
:100F2000CA01A0011124FF27591B99F0593F50F421
:100F3000503E68F11A16F040A22F232F342F442779
:100F4000585FF3CF469537952795A795F040539571
:100F5000C9F77EF41F16BA0B620B730B840BBAF041
:100F60009150A1F0FF0FBB1F661F771F881FC2F7AC
:100F70000EC0BA0F621F731F841F48F487957795C0
:100F80006795B795F7959E3F08F0B3CF9395880F77
:100F900008F09927EE0F97958795089504D06894E7
:100FA000B111B5C0089598D088F09F5790F0B92F2F
:100FB0009927B751A0F0D1F0660F771F881F991FAE
:100FC0001AF0BA95C9F712C0B13081F09FD0B1E0E4
:100FD00008959CC0672F782F8827B85F39F0B93FF4
:100FE000CCF3869577956795B395D9F73EF49095B0
:100FF0008095709561957F4F8F4F9F4F0895E8942E
:1010000009C097FB3EF490958095709561957F4F50
:101010008F4F9F4F9923A9F0F92F96E9BB279395FE
:10102000F695879577956795B795F111F8CFFAF40E
:10103000BB0F11F460FF1BC06F5F7F4F8F4F9F4F3F
:1010400016C0882311F096E911C0772321F09EE89D
:10105000872F762F05C0662371F096E8862F70E003
:1010600060E02AF09A95660F771F881FDAF7880FDD
:101070009695879597F9089597F99F6780E870E0AE
:1010800060E008959FEF80EC089500240A941616FE
:10109000170618060906089500240A941216130666
:1010A000140605060895092E0394000C11F48823F4
:1010B00052F0BB0F40F4BF2B11F460FF04C06F5F10
:1010C0007F4F8F4F9F4F089557FD9058440F551FE6
:1010D00059F05F3F71F04795880F97FB991F61F0BA
:1010E0009F3F79F087950895121613061406551F31
:1010F000F2CF4695F1DF08C0161617061806991F9D
:10110000F1CF86957105610508940895E894BB2791
:1011100066277727CB0197F9089597FB072E16F4DA
:10112000009406D077FD08D00BD007FC05D03EF424
:10113000909581959F4F0895709561957F4F089583
:10114000AA1BBB1B51E107C0AA1FBB1FA617B707ED
:1011500010F0A61BB70B881F991F5A95A9F7809509
:101160009095BC01CD0108950F931F93CF93DF930A
:101170008230910510F482E090E0E0918F03F091CD
:10118000900320E030E0A0E0B0E0309719F140811A
:1011900051810281138148175907C8F084179507B8
:1011A00069F4109731F012960C93129713961C93D2
:1011B00027C000938F031093900322C0211531059F
:1011C00019F04217530718F49A01BD01EF01DF012E
:1011D000F801DBCF21153105F9F0281B390B24303C
:1011E000310580F48A819B816115710521F0FB0135
:1011F0009383828304C09093900380938F03FE01B6
:10120000329644C0FE01E20FF31F81939193225066
:101210003109398328833AC020918D0330918E03A0
:10122000232B41F4209102023091030230938E036C
:1012300020938D0320910002309101022115310588
:1012400041F42DB73EB74091040250910502241B92
:10125000350BE0918D03F0918E03E217F307A0F4B4
:101260002E1B3F0B2817390778F0AC014E5F5F4FFC
:101270002417350748F04E0F5F1F50938E0340939D
:101280008D038193919302C0E0E0F0E0CF01DF9104
:10129000CF911F910F910895CF93DF93009709F499
:1012A00081C0FC01329713821282A0918F03B0910A
:1012B0009003109781F420813181820F931F209138
:1012C0008D0330918E032817390751F5F0938E0363
:1012D000E0938D0367C0ED0120E030E0CE17DF071B
:1012E00040F44A815B819E0141155105F1F0EA010C
:1012F000F5CFD383C28340815181840F951FC817D6
:10130000D90759F488819981840F951F029691839A
:1013100080838A819B81938382832115310529F4FF
:10132000F0939003E0938F033DC0E901FB83EA83D0
:1013300049915991C40FD51FEC17FD0761F48081C5
:101340009181840F951F0296E90199838883828198
:1013500093819B838A83E0E0F0E012968D919C91CB
:101360001397009719F0FD01DC01F7CF8D919C9147
:1013700011979D012E5F3F4F820F931F20918D0388
:1013800030918E032817390769F4309729F41092A9
:10139000900310928F0302C013821282B0938E03C7
:0E13A000A0938D03DF91CF910895F894FFCFB5
:1013AE0000009103200036002E002D003500544918
:1013BE004D455220454E440042454C5400424C008F
:0A13CE00535400414C005754000036
:00000001FF
