:1000000071C000008FC000001BC2000012C40000BD
:10001000DFC3000006C2000085C0000083C00000EE
:1000200081C000007FC000007DC000007BC00000D8
:1000300079C0000077C0000075C0000073C00000E8
:1000400071C000006FC000006DC000006BC00000F8
:1000500069C0000067C0000065C0000063C0000008
:1000600061C000005FC000005DC000005BC0000018
:1000700059C000004CC2000055C0000053C0000031
:1000800017C200004FC000004DC000004BC0000070
:1000900049C0000047C0000045C0000043C0000048
:1000A00041C000003FC000003DC000003BC0000058
:1000B00039C0000037C0000035C0000033C0000068
:1000C00031C000002FC000002DC000002BC0000078
:1000D00029C0000027C0000025C0000023C0000088
:1000E00021C0000011241FBECFEFD1E2DEBFCDBF83
:1000F00000E00CBF12E0A0E0B2E0EEEDF3E100E0C2
:100100000BBF02C007900D92AA34B107D9F723E0C4
:10011000AAE4B2E001C01D92A13BB207E1F757D4B7
:100120000C94ED091CC387B1807F87B988B18062C8
:1001300088B988B18F7B88B982E08A95F1F700C0D1
:1001400088B1806888B992E09A95F1F700C086B1CD
:100150008295807F92E09A95F1F700C098B19F77E1
:1001600098B995E09A95F1F7000098B1906898B920
:1001700092E09A95F1F700C096B1807892E09A9556
:10018000F1F700C098B19F7798B995E09A95F1F78B
:1001900000008111D5CF88B18F7D88B987B18F607C
:1001A00087B90895282F22952F708F70611104C090
:1001B00098B19F7B98B903C098B1906498B992E0C8
:1001C0009A95F1F700C098B1906898B998B1907F6E
:1001D000922B98B995E09A95F1F7000098B19F7726
:1001E00098B995E09A95F1F7000098B1906898B9A0
:1001F00098B1907F892B88B985E08A95F1F7000046
:1002000088B18F7788B995E09A95F1F700008BCF88
:100210000895CF93C82F2FEF86E791E021508040BB
:100220009040E1F700C0000087B18F6087B987B1C7
:10023000806887B987B1806487B987B1806287B9E0
:1002400088B1807F88B988B18F7788B988B18F7D70
:1002500088B988B18F7B88B900C000C0000088B120
:10026000806888B988B1826088B925E02A95F1F75D
:10027000000088B18F7788B985E08A95F1F7000092
:1002800052DF60E08C2F8C608DDF60E088E28ADFD7
:10029000CF910895CF93DF93EC0103C061E082DF3B
:1002A000219688818111FACFDF91CF910895EF9245
:1002B000FF920F931F93CF93DF9300D01F921F9253
:1002C000CDB7DEB77B01FE01319625E0DF011D923F
:1002D0002A95E9F724E030E00EC06AE070E035D7F7
:1002E000E1E0F0E0EC0FFD1FE20FF31F8083862FAB
:1002F000972F21503109009781F7BFEFEB16FB06CE
:1003000081F403C00F5F1F4F02C000E010E0E1E086
:10031000F0E0EC0FFD1FE00FF11F2081222391F38D
:1003200004C005E010E00E191F09992384F461E070
:100330008DE238DF0CC0E1E0F0E0EC0FFD1FE00FD4
:10034000F11F808161E0805D2DDF0F5F1F4F053061
:1003500011058CF30F900F900F900F900F90DF917D
:10036000CF911F910F91FF90EF900895883228F45C
:100370006111806460E0806815CF0895FC011182EE
:100380001082FB01118210820895CF93DF93EC015C
:1003900084E090E001D799838883FC011382128264
:1003A000DF91CF910895DB01ED91FC91309761F0E1
:1003B000DA018D919C911197938382838D919C9109
:1003C000FB01918380830895DA012D913C9111976F
:1003D000FC01318320838D919C91DB018D939C9353
:1003E0000895FC0180819181DA018D939C93A08115
:1003F000B181109731F012968D919C911397918352
:10040000808380819181892B19F4FB0111821082F4
:100410000895FC012081318181E0232B09F080E0E7
:1004200008951F920F920FB60F9211248F9382E0BE
:100430008093D6028F910F900FBE0F901F9018954A
:100440001F920F920FB60F9211240BB60F922F939B
:100450003F934F935F936F937F938F939F93AF934C
:10046000BF93EF93FF9384E692E0D3DF813019F4DA
:100470001092D6020AC084E692E0CBDF811105C05B
:1004800088E785B983E08093D602FF91EF91BF9111
:10049000AF919F918F917F916F915F914F913F911C
:1004A0002F910F900BBE0F900FBE0F901F901895BD
:1004B0001F920F920FB60F9211240BB60F922F932B
:1004C0003F934F935F936F937F938F939F93AF93DC
:1004D000BF93EF93FF9360E081E064DE8EE092E0F3
:1004E000D9DE85E08093D602FF91EF91BF91AF9165
:1004F0009F918F917F916F915F914F913F912F913C
:100500000F900BBE0F900FBE0F901F9018951F926B
:100510000F920FB60F9211240BB60F922F933F93A9
:100520004F935F936F937F938F939F93AF93BF93FB
:10053000EF93FF938091780090E09093E202809394
:10054000E1028091790090E09093D8028093D702E5
:100550008091D7029091D802982F88272091E102AC
:100560003091E202822B932B909359028093580290
:10057000209158023091590280915A0290915B0269
:100580002817390740F480915802909159029093AE
:100590005B0280935A02649B06C0EAE7F0E0808128
:1005A00080648083C9C080915A0290915B02843636
:1005B000910560F560E081E0F5DD60E080E0D6DE89
:1005C00088E192E067DE61E080E0D0DE80915A024F
:1005D00090915B0264E070E06ADEE091DF02F091EE
:1005E000E00283E090E0918380834FED52E060E68B
:1005F00072E084E692E0D7DE80915202909153023D
:100600000196909353028093520296C080915A02B1
:1006100090915B028A38924060F560E081E0C2DD33
:1006200060E080E0A3DE81E292E034DE61E080E021
:100630009DDE80915A0290915B0264E070E037DEAB
:10064000E091DF02F091E00281E090E0918380830D
:100650004FED52E060E672E084E692E0A4DE809125
:10066000520290915302019690935302809352024A
:1006700063C080915A0290915B02823A934060F588
:1006800060E081E08FDD60E080E070DE87E292E094
:1006900001DE61E080E06ADE80915A0290915B02A7
:1006A00064E070E004DEE091DF02F091E00282E0BD
:1006B00090E0918380834FED52E060E672E084E643
:1006C00092E071DE809152029091530201969093D4
:1006D00053028093520230C080915A0290915B0283
:1006E0008115944048F560E081E05CDD60E080E0E9
:1006F0003DDE8DE292E0CEDD61E080E037DE80918C
:100700005A0290915B0264E070E0D1DDE091DF027B
:10071000F091E002118210824FED52E060E672E04B
:1007200084E692E040DE809152029091530201965D
:100730009093530280935202FF91EF91BF91AF913A
:100740009F918F917F916F915F914F913F912F91E9
:100750000F900BBE0F900FBE0F901F9018951F9219
:100760000F920FB60F9211240F900FBE0F901F9093
:100770001895E1E9F0E08081886080838081856060
:1007800080838BE197EB909399008093980010926F
:10079000950010929400E1E7F0E080818260808310
:1007A00008959C01E1E8F0E0908198609083309397
:1007B00089002093880086B3826086BB10928500F2
:1007C00010928400B19BFECF86B3826086BB0895F1
:1007D0001F920F920FB60F9211240BB60F922F9308
:1007E0003F934F935F936F937F938F939F93AF93B9
:1007F000BF93EF93FF9380E29EE4D3DF84E0809386
:10080000D6024B99FECF80E29EE4CBDFFF91EF91C1
:10081000BF91AF919F918F917F916F915F914F9118
:100820003F912F910F900BBE0F900FBE0F901F9016
:1008300018951F920F920FB60F9211240BB60F92BC
:100840002F933F934F935F936F937F938F939F93D8
:10085000AF93BF93EF93FF9380E29EE4A2DF89DF23
:100860001092D602FF91EF91BF91AF919F918F911E
:100870007F916F915F914F913F912F910F900BBEA0
:100880000F900FBE0F901F90189584B5836084BDA4
:1008900084B5806884BD85B5826085BD84EC87BDE4
:1008A00008950F931F93CF93DF938C01C0E0D0E0A6
:1008B00035C080915E0290915F02019690935F0235
:1008C00080935E0280915E0290915F02049721F412
:1008D00010925F0210925E02E0915E02F0915F0260
:1008E000EE0FFF1FEA5FFD4F808182B902331105D1
:1008F00049F4FE01EE0FFF1FE859FD4F8081918101
:1009000050DF0BC00436110541F4FE01EE0FFF1F4E
:10091000ED51FD4F8081918144DF2196C017D107B1
:1009200044F21092550210925402DF91CF911F9120
:100930000F9108950F931F93CF93DF938C01C0E025
:10094000D0E037C080915E0290915F020197909352
:100950005F0280935E0280915E0290915F02019639
:1009600031F483E090E090935F0280935E02E09127
:100970005E02F0915F02EE0FFF1FEA5FFD4F808184
:1009800082B90233110549F4FE01EE0FFF1FE85949
:10099000FD4F8081918105DF0BC00436110541F4C4
:1009A000FE01EE0FFF1FED51FD4F80819181F9DEB9
:1009B0002196C017D10734F281E090E09093550260
:1009C00080935402DF91CF911F910F9108950F935F
:1009D0001F93CF93DF93E1E6F0E080E8808381E02E
:1009E000808382E0809381001092D60280E29EE4B0
:1009F00090936902809368029093E4028093E302EB
:100A0000C1E0D0E051C0CB30D105E4F4FE01319714
:100A1000EE0FFF1FE859FD4F60817181072E000C1A
:100A2000880B990B06D320E030E84BEB54E469D2F5
:100A30008E01000F111F08591D4FC8D2F801718394
:100A4000608331C0C832D10584F4FE013197EE0FC6
:100A5000FF1FE859FD4F80819181FE01EE0FFF1FBE
:100A6000E859FD4F918380831EC0C832D105DCF068
:100A7000FE013197EE0FFF1FE859FD4F6081718134
:100A8000072E000C880B990BD4D220E030E84BEBFA
:100A900054E438D28E01000F111F08591D4F96D211
:100AA000F801718360832196C333D1050CF4ABCF79
:100AB000C1E0D0E051C0C531D105E4F4FE01319769
:100AC000EE0FFF1FED51FD4F60817181072E000C6D
:100AD000880B990BAED220E030E84BE354E411D2FE
:100AE0008E01000F111F0D511D4F70D2F80171833F
:100AF000608331C0C035D10584F4FE013197EE0F1B
:100B0000FF1FED51FD4F80819181FE01EE0FFF1F10
:100B1000ED51FD4F918380831EC0C035D105DCF0BF
:100B2000FE013197EE0FFF1FED51FD4F6081718186
:100B3000072E000C880B990B7CD220E030E84BE3A9
:100B400054E4E0D18E01000F111F0D511D4F3ED214
:100B5000F801718360832196C536D1050CF4ABCFC3
:100B600011B810BA8FEF87B984B91AB88EDE83E056
:100B700050DB60E081E016DB83E392E08BDBF894EE
:100B80008DB384608DBBE9E6F0E080818062808374
:100B90008DB388608DBB8081806C80838DB38260D3
:100BA0008DBB8081886080838DB380618DBBEAE6D8
:100BB000F0E0808183608083EAE7F0E080818068F4
:100BC0008083808188608083ECE7F0E080818064AE
:100BD000808310925D0210925C021092E0021092EB
:100BE000DF0260E672E084E692E0C8DB8FED92E01F
:100BF000CCDB1092670210926602789481E08093B9
:100C0000D6028091D602833009F443C028F48130A3
:100C100051F0823069F1F5CF843009F4B8C08530E5
:100C200009F41BC1EECF10925F0210925E0281E0C8
:100C300090E0909355028093540206C081E090E0CA
:100C400079DE80E29EE4ADDD4F99F8CFC0E0D0E0E0
:100C500007C081E090E06EDE80E29EE4A2DD219696
:100C6000C430D105B4F380E785B91092D602C9CF5C
:100C70008FEF93E090935B0280935A028FED92E0A6
:100C800084DBEAE7F0E08081806480831092D60202
:100C9000B8CF4CE552E060E672E084E692E0A1DB7A
:100CA0008091520290915302019790935302809346
:100CB0005202E0915C02F0915D02808191819093FB
:100CC0005702809356020190F081E02DEE0FFF1F36
:100CD000E65BFD4F808191810196918380838091B5
:100CE0006602909167022091560230915702821B52
:100CF000930B8130910521F08D3FFFEF9F0739F471
:100D000082E390E0CEDD80E197E24BDD2CC08F3FA7
:100D10002FEF920719F08330910539F482E390E0C8
:100D200009DE80E197E23DDD1EC08230910511F0C1
:100D30000296C9F48091540290915502019739F4BA
:100D400084E690E0F7DD80E197E22BDD0CC0809136
:100D5000540290915502892B31F484E690E0A1DD94
:100D600080E197E21EDDE0915C02F0915D028081FE
:100D70009181909367028093660280E785B98091A4
:100D80005C0290915D02A0D21092D6023ACF85B15A
:100D900090E09093DC028093DB028091DB029091E3
:100DA000DC028037910509F050C088E785B960E022
:100DB00081E0F8D960E080E0D9DA89E392E06ADA8C
:100DC00060E085E0D3DA8EE392E064DA60E088E008
:100DD000CDDA81E492E05EDA60E08BE0C7DA84E4A9
:100DE00092E058DA60E08EE0C1DA87E492E052DA0D
:100DF00061E080E0BBDA809152029091530262E0A0
:100E000070E055DA61E085E0B1DACAE4D2E062E090
:100E100070E0888199814BDA61E088E0A7DA62E0CE
:100E200070E08A819B8143DA61E08BE09FDA62E0C7
:100E300070E08E819F813BDA61E08EE097DA62E0BC
:100E400070E08C819D8133DA05C080E785B960E070
:100E500081E0A8D91092D602D4CE15B860E081E026
:100E6000A1D960E080E082DA89E392E013DA60E001
:100E700085E07CDA8EE392E00DDA60E088E076DAF5
:100E800081E492E007DA60E08BE070DA84E492E0DB
:100E900001DA60E08EE06ADA87E492E0FBD961E093
:100EA00080E064DA62E070E080E090E000DA61E027
:100EB00085E05CDACAE4D2E062E070E08881998182
:100EC000F6D961E088E052DA62E070E08A819B81C5
:100ED000EED961E08BE04ADA62E070E08E819F81BA
:100EE000E6D961E08EE042DA62E070E08C819D81BB
:100EF000DED9F89480E090E0DF91CF911F910F91BF
:100F000008955058BB27AA270ED0E5C0D6D030F0A0
:100F1000DBD020F031F49F3F11F41EF4CBC00EF46F
:100F2000E095E7FBC1C0E92FE7D080F3BA1762076D
:100F300073078407950718F071F49EF5FFC00EF44F
:100F4000E0950B2EBA2FA02D0B01B90190010C01D9
:100F5000CA01A0011124FF27591B99F0593F50F4F1
:100F6000503E68F11A16F040A22F232F342F442749
:100F7000585FF3CF469537952795A795F040539541
:100F8000C9F77EF41F16BA0B620B730B840BBAF011
:100F90009150A1F0FF0FBB1F661F771F881FC2F77C
:100FA0000EC0BA0F621F731F841F48F48795779590
:100FB0006795B795F7959E3F08F0B3CF9395880F47
:100FC00008F09927EE0F97958795089504D06894B7
:100FD000B111B5C0089598D088F09F5790F0B92FFF
:100FE0009927B751A0F0D1F0660F771F881F991F7E
:100FF0001AF0BA95C9F712C0B13081F09FD0B1E0B4
:1010000008959CC0672F782F8827B85F39F0B93FC3
:10101000CCF3869577956795B395D9F73EF490957F
:101020008095709561957F4F8F4F9F4F0895E894FD
:1010300009C097FB3EF490958095709561957F4F20
:101040008F4F9F4F9923A9F0F92F96E9BB279395CE
:10105000F695879577956795B795F111F8CFFAF4DE
:10106000BB0F11F460FF1BC06F5F7F4F8F4F9F4F0F
:1010700016C0882311F096E911C0772321F09EE86D
:10108000872F762F05C0662371F096E8862F70E0D3
:1010900060E02AF09A95660F771F881FDAF7880FAD
:1010A0009695879597F9089597F99F6780E870E07E
:1010B00060E008959FEF80EC089500240A941616CE
:1010C000170618060906089500240A941216130636
:1010D000140605060895092E0394000C11F48823C4
:1010E00052F0BB0F40F4BF2B11F460FF04C06F5FE0
:1010F0007F4F8F4F9F4F089557FD9058440F551FB6
:1011000059F05F3F71F04795880F97FB991F61F089
:101110009F3F79F087950895121613061406551F00
:10112000F2CF4695F1DF08C0161617061806991F6C
:10113000F1CF86957105610508940895E894BB2761
:1011400066277727CB0197F9089597FB072E16F4AA
:10115000009406D077FD08D00BD007FC05D03EF4F4
:10116000909581959F4F0895709561957F4F089553
:10117000AA1BBB1B51E107C0AA1FBB1FA617B707BD
:1011800010F0A61BB70B881F991F5A95A9F78095D9
:101190009095BC01CD0108950F931F93CF93DF93DA
:1011A0008230910510F482E090E0E091AF03F0917D
:1011B000B00320E030E0A0E0B0E0309719F14081CA
:1011C00051810281138148175907C8F08417950788
:1011D00069F4109731F012960C93129713961C93A2
:1011E00027C00093AF031093B00322C0211531052F
:1011F00019F04217530718F49A01BD01EF01DF01FE
:10120000F801DBCF21153105F9F0281B390B24300B
:10121000310580F48A819B816115710521F0FB0104
:101220009383828304C09093B0038093AF03FE0145
:10123000329644C0FE01E20FF31F81939193225036
:101240003109398328833AC02091AD033091AE0330
:10125000232B41F420910202309103023093AE031C
:101260002093AD0320910002309101022115310538
:1012700041F42DB73EB74091040250910502241B62
:10128000350BE091AD03F091AE03E217F307A0F444
:101290002E1B3F0B2817390778F0AC014E5F5F4FCC
:1012A0002417350748F04E0F5F1F5093AE0340934D
:1012B000AD038193919302C0E0E0F0E0CF01DF91B4
:1012C000CF911F910F910895CF93DF93009709F469
:1012D00081C0FC01329713821282A091AF03B091BA
:1012E000B003109781F420813181820F931F2091E8
:1012F000AD033091AE032817390751F5F093AE03D3
:10130000E093AD0367C0ED0120E030E0CE17DF07CA
:1013100040F44A815B819E0141155105F1F0EA01DB
:10132000F5CFD383C28340815181840F951FC817A5
:10133000D90759F488819981840F951F029691836A
:1013400080838A819B81938382832115310529F4CF
:10135000F093B003E093AF033DC0E901FB83EA8360
:1013600049915991C40FD51FEC17FD0761F4808195
:101370009181840F951F0296E90199838883828168
:1013800093819B838A83E0E0F0E012968D919C919B
:101390001397009719F0FD01DC01F7CF8D919C9117
:1013A00011979D012E5F3F4F820F931F2091AD0338
:1013B0003091AE032817390769F4309729F4109259
:1013C000B0031092AF0302C013821282B093AE0337
:0E13D000A093AD03DF91CF910895F894FFCF65
:1013DE000000B103200036002E002D0035005449C8
:1013EE004D455220454E4400414C554D494E554DAC
:1013FE0000535445454C00574849544500424C4112
:10140E00434B0068656C6C6F0042454C5400424C77
:0A141E0000535400414C00575400E5
:00000001FF
