S00D00004C616234422E7372656392
S113000071C000008EC000008CC0000083C10000DD
S113001049C1000086C0000084C0000082C0000006
S113002080C000007EC000007CC000007AC00000D8
S113003078C0000076C0000074C0000072C00000E8
S113004070C000006EC000006CC000006AC00000F8
S113005068C0000066C0000064C0000062C0000008
S113006060C000005EC000005CC000005AC0000018
S113007058C00000DAC0000054C0000052C00000A4
S113008050C000004EC000004CC000004AC0000038
S113009048C0000046C0000044C0000042C0000048
S11300A040C000003EC000003CC000003AC0000058
S11300B038C0000036C0000034C0000032C0000068
S11300C030C000002EC000002CC000002AC0000078
S11300D028C0000026C0000024C0000022C0000088
S11300E020C0000011241FBECFEFD1E2DEBFCDBF80
S11300F000E00CBF12E0A0E0B2E0E4E0F4E000E0D5
S11301000BBF02C007900D92A031B107D9F722E0CE
S1130110A0E1B2E001C01D92A331B207E1F73FD1E3
S11301206FC16ECF87B1807F87B988B1806288B98B
S113013088B18F7B88B982E08A95F1F700C088B1D5
S1130140806888B992E09A95F1F700C086B18295EB
S1130150807F92E09A95F1F700C098B19F7798B9A3
S113016095E09A95F1F7000098B1906898B992E0FB
S11301709A95F1F700C096B1807892E09A95F1F7DC
S113018000C098B19F7798B995E09A95F1F700006F
S11301908111D5CF88B18F7D88B987B18F6087B938
S11301A00895282F22952F708F70611104C098B183
S11301B09F7B98B903C098B1906498B992E09A95DE
S11301C0F1F700C098B1906898B998B1907F922BDC
S11301D098B995E09A95F1F7000098B19F7798B98E
S11301E095E09A95F1F7000098B1906898B998B1A4
S11301F0907F892B88B985E08A95F1F7000088B152
S11302008F7788B995E09A95F1F700008BCF089520
S1130210CF93DF93EC0103C061E0C3DF21968881B3
S11302208111FACFDF91CF9108951F920F920FB6EB
S11302300F9211248F939F938091790080931002E1
S113024081E090E090931202809311029F918F912C
S11302500F900FBE0F901F901895E1E8F0E02081F9
S11302602860208328EE33E03093890020938800AF
S11302701092850010928400EFE6F0E02081226065
S1130280208326B3226026BB20E030E007C0B19B68
S113029005C046B3426046BB2F5F3F4F281739075E
S11302A0B4F308951F920F920FB60F9211240BB658
S11302B00F922F933F934F935F936F937F938F93FB
S11302C09F93AF93BF93CF93EF93FF9384E190E019
S11302D0C4DFC5B18CE385B985E090E0BEDFC833E7
S11302E019F480E385B902C088E385B9FF91EF91E1
S11302F0CF91BF91AF919F918F917F916F915F91BA
S11303004F913F912F910F900BBE0F900FBE0F9006
S11303101F9018951F920F920FB60F9211240BB6CF
S11303200F922F933F934F935F936F937F938F938A
S11303309F93AF93BF93EF93FF9384E190E08DDF9E
S11303408CE385B985E090E088DF15B880E092E021
S11303505FDFFF91EF91BF91AF919F918F917F915B
S11303606F915F914F913F912F910F900BBE0F9022
S11303700FBE0F901F90189584B5836084BDEEE680
S1130380F0E080818260808384B5806884BD85B517
S1130390826085BD80E887BD8FEF84B90895E1E66A
S11303A0F0E080E8808381E0808382E080938100B4
S11303B011B810BAE1DFF8948DB384608DBBE9E61F
S11303C0F0E08081806280838DB388608DBB808102
S11303D0806C8083EAE7F0E080818068808380819C
S11303E088608083ACE7B0E08C9180668C938FEF5B
S11303F087B984B9789490819064908388B9FFCF49
S1070400F894FFCF9A
S11304044B494C4C20414354495641544544000003
S9030000FC
