:1000000071C000008EC000008CC0000029C200003A
:10001000EFC1000086C0000084C0000082C0000064
:1000200080C000007EC000007CC000007AC00000DC
:1000300078C0000076C0000074C0000072C00000EC
:1000400070C000006EC000006CC000006AC00000FC
:1000500068C0000066C0000064C0000062C000000C
:1000600060C000005EC000005CC000005AC000001C
:1000700058C0000082C1000054C0000052C00000FF
:1000800050C000004EC000004CC000004AC000003C
:1000900048C0000046C0000044C0000042C000004C
:1000A00040C000003EC000003CC000003AC000005C
:1000B00038C0000036C0000034C0000032C000006C
:1000C00030C000002EC000002CC000002AC000007C
:1000D00028C0000026C0000024C0000022C000008C
:1000E00020C0000011241FBECFEFD1E2DEBFCDBF84
:1000F00000E00CBF12E0A0E0B2E0ECE2F6E000E0CD
:100100000BBF02C007900D92A232B107D9F722E0CF
:10011000A2E2B2E001C01D92A532B207E1F7C1D15F
:1001200083C26ECF87B1807F87B988B1806288B97A
:1001300088B18F7B88B982E08A95F1F700C088B1D9
:10014000806888B992E09A95F1F700C086B18295EF
:10015000807F92E09A95F1F700C098B19F7798B9A7
:1001600095E09A95F1F7000098B1906898B992E0FF
:100170009A95F1F700C096B1807892E09A95F1F7E0
:1001800000C098B19F7798B995E09A95F1F7000073
:100190008111D5CF88B18F7D88B987B18F6087B93C
:1001A0000895282F22952F708F70611104C098B187
:1001B0009F7B98B903C098B1906498B992E09A95E2
:1001C000F1F700C098B1906898B998B1907F922BE0
:1001D00098B995E09A95F1F7000098B19F7798B992
:1001E00095E09A95F1F7000098B1906898B998B1A8
:1001F000907F892B88B985E08A95F1F7000088B156
:100200008F7788B995E09A95F1F700008BCF089524
:10021000CF93C82F2FEF86E791E021508040904088
:10022000E1F700C0000087B18F6087B987B18068AF
:1002300087B987B1806487B987B1806287B988B18F
:10024000807F88B988B18F7788B988B18F7D88B968
:1002500088B18F7B88B900C000C0000088B1806879
:1002600088B988B1826088B925E02A95F1F7000045
:1002700088B18F7788B985E08A95F1F7000052DF61
:1002800060E08C2F8C608DDF60E088E28ADFCF91A8
:100290000895CF93DF93EC0103C061E082DF2196E4
:1002A00088818111FACFDF91CF910895EF92FF926B
:1002B0000F931F93CF93DF9300D01F921F92CDB760
:1002C000DEB77B01FE01319625E0DF011D922A9504
:1002D000E9F724E030E00EC06AE070E07ED1E1E0B2
:1002E000F0E0EC0FFD1FE20FF31F8083862F972FA6
:1002F00021503109009781F7BFEFEB16FB0681F41F
:1003000003C00F5F1F4F02C000E010E0E1E0F0E02B
:10031000EC0FFD1FE00FF11F2081222391F304C099
:1003200005E010E00E191F09992384F461E08DE2C5
:1003300038DF0CC0E1E0F0E0EC0FFD1FE00FF11F33
:10034000808161E0805D2DDF0F5F1F4F053011055B
:100350008CF30F900F900F900F900F90DF91CF9133
:100360001F910F91FF90EF900895883228F461114A
:10037000806460E0806815CF08951F920F920FB6D9
:100380000F9211248F939F93809179008093220282
:100390008091220287BD81E090E0909324028093B7
:1003A00023029F918F910F900FBE0F901F90189571
:1003B000E1E8F0E020812860208328EE33E03093EC
:1003C000890020938800109285001092840026B343
:1003D000226026BB20E030E007C0B19B05C046B3D9
:1003E000426046BB2F5F3F4F28173907B4F308958B
:1003F0001F920F920FB60F9211240BB60F922F93EC
:100400003F934F935F936F937F938F939F93AF939C
:10041000BF93CF93EF93FF9384E190E0C9DFC5B121
:1004200088E785B985E090E0C3DFC83619F480E736
:1004300085B902C088E685B9FF91EF91CF91BF9150
:10044000AF919F918F917F916F915F914F913F916C
:100450002F910F900BBE0F900FBE0F901F9018950D
:100460001F920F920FB60F92112484E190E0A0DF4B
:1004700088E785B985E090E09BDF15B860E081E012
:1004800090DE80E092E005DFFFCF84B5836084BD1D
:1004900084B5806884BD85B5826085BD80E887BDF0
:1004A0000895E1E6F0E080E8808381E0808382E0E7
:1004B0008093810011B810BACFEFC7B9E6DF83E0AF
:1004C000A7DE60E081E06DDEF8948DB384608DBBC3
:1004D000E9E6F0E08081806280838DB388608DBB27
:1004E0008081806C8083EAE7F0E08081806880838F
:1004F000808188608083ACE7B0E08C9180668C93CB
:10050000C7B9C4B988E685B978948081806480834E
:1005100084E190E04DDF8091230290912402892BA9
:1005200009F455C0109224021092230285B1883636
:1005300049F560E081E035DE60E080E016DF8FE0C5
:1005400092E0A7DE61E080E010DF8091220224E6E5
:10055000829FC00111246FEF70E03FD0CB0163E0B8
:1005600070E0A4DE61E083E000DF87E192E091DEED
:1005700061E08DE0FADE8091220263E070E090E0BD
:1005800095DE25C060E081E00CDE89E192E081DE4D
:1005900061E080E0EADE8091220224E6829FC001D1
:1005A00011246FEF70E019D0CB0163E070E07EDEC4
:1005B00061E083E0DADE87E192E06BDE61E08DE00E
:1005C000D4DE8091220263E070E090E06FDEEAE723
:1005D000F0E08081806480839BCF97FB072E16F428
:1005E000009406D077FD08D00BD007FC05D03EF470
:1005F000909581959F4F0895709561957F4F0895CF
:10060000AA1BBB1B51E107C0AA1FBB1FA617B70738
:1006100010F0A61BB70B881F991F5A95A9F7809554
:0C0620009095BC01CD010895F894FFCF27
:10062C004B494C4C20414354495641544544004697
:10063C004F5257415244002500524556455253459E
:02064C000000AC
:00000001FF
