:1000000071C000008EC000008CC000008AC00000DB
:1000100088C0000086C0000084C0000082C00000CC
:1000200080C000007EC000007CC000007AC00000DC
:1000300078C0000076C0000074C0000072C00000EC
:1000400070C000006EC000006CC000006AC00000FC
:1000500068C0000066C0000064C0000062C000000C
:1000600060C000005EC000005CC000005AC000001C
:1000700058C0000056C0000054C0000052C000002C
:1000800050C000004EC000004CC000004AC000003C
:1000900048C0000046C0000044C0000042C000004C
:1000A00040C000003EC000003CC000003AC000005C
:1000B00038C0000036C0000034C0000032C000006C
:1000C00030C000002EC000002CC000002AC000007C
:1000D00028C0000026C0000024C0000022C000008C
:1000E00020C0000011241FBECFEFD1E2DEBFCDBF84
:1000F00000E00CBF12E0A0E0B2E0E0EBF2E000E0D4
:100100000BBF02C007900D92A830B107D9F722E0CB
:10011000A8E0B2E001C01D92AA30B207E1F78DD08D
:10012000C5C06ECFE1E8F0E020812860208328EE92
:1001300033E030938900209388001092850010925C
:100140008400EFE6F0E020812260208326B3226065
:1001500026BB20E030E007C0B19B05C046B342603B
:1001600046BB2F5F3F4F28173907B4F308950F930D
:100170001F93CF93DF93EC0100E010E022C0809149
:100180000802909109020196909309028093080257
:100190008091080290910902049721F410920902BB
:1001A00010920802E0910802F0910902EE0FFF1F81
:1001B000E050FE4F808182B984E190E0B3DF0F5FB1
:1001C0001F4F0C171D07DCF2DF91CF911F910F918C
:1001D00008950F931F93CF93DF93EC0100E010E09D
:1001E00024C080910802909109020197909309021E
:1001F000809308028091080290910902019631F4DF
:1002000083E090E09093090280930802E091080255
:10021000F0910902EE0FFF1FE050FE4F808182B97E
:1002200084E190E07FDF0F5F1F4F0C171D07CCF2BA
:10023000DF91CF911F910F910895E1E6F0E080E802
:10024000808381E0808382E08093810011B81092E6
:100250000902109208028CE390E089DF80ED97E0BC
:1002600061DF81E190E083DF80ED97E05BDF81E299
:1002700090E07DDF80ED97E055DF84E690E077DF6A
:1002800080ED97E04FDF81E190E0A3DF80ED97E024
:1002900049DF81E290E09DDF80ED97E043DF84E677
:1002A00090E097DF80ED97E03DDFD5CFF894FFCF6A
:0802B0003000060028000500E3
:00000001FF
