S01F000050726F6A656374536B656C65746F6E44656D6F323536302E7372656397
S113000071C0000081C000007FC00000BBC00000C0
S1130010C8C0000079C0000077C0000075C00000AF
S113002073C0000071C000006FC000006DC000000C
S11300306BC0000069C0000067C0000065C000001C
S113004063C0000061C000005FC000005DC000002C
S11300505BC0000059C0000057C0000055C000003C
S113006053C0000051C000004FC000004DC000004C
S11300704BC0000049C0000047C0000045C000005C
S113008043C0000041C000003FC000003DC000006C
S11300903BC0000039C0000037C0000035C000007C
S11300A033C0000031C000002FC000002DC000008C
S11300B02BC0000029C0000027C0000025C000009C
S11300C023C0000021C000001FC000001DC00000AC
S11300D01BC0000019C0000017C0000015C00000BC
S11300E013C0000011241FBECFEFD1E2DEBFCDBF8D
S11300F000E00CBF22E0A0E0B2E001C01D92A130FC
S1130100B207E1F702D066C05BC0E1E6F0E080E848
S1130110808381E0808310920002F89480EF8AB992
S11301208FEF87B9E9E6F0E0808180638083808186
S1130130806C80838DB38C608DBB789438E021E033
S113014094E088B1806F88B980910002823069F0B0
S113015018F4813031F0F5CF833059F0853069F0EF
S1130160F0CF28B910920002ECCF98B91092000297
S1130170E8CF38B910920002E4CF80EF88B980E06C
S113018090E008951F920F920FB60F9211248F934F
S113019082E0809300028F910F900FBE0F901F900A
S11301A018951F920F920FB60F9211248F9383E02C
S11301B0809300028F910F900FBE0F901F9018959F
S11301C01F920F920FB60F9211240F900FBE0F9033
S10B01D01F901895F894FFCF6D
S9030000FC
