:1000000071C0000086C0000084C0000082C00000F3
:1000100080C000007EC000007CC000007AC00000EC
:1000200078C0000076C0000074C0000072C00000FC
:1000300070C000006EC000006CC000006AC000000C
:1000400068C0000066C0000064C0000062C000001C
:1000500060C000005EC000005CC000005AC000002C
:1000600058C0000056C0000054C0000052C000003C
:1000700050C000004EC000004CC000004AC000004C
:1000800048C0000046C0000044C0000042C000005C
:1000900040C000003EC000003CC000003AC000006C
:1000A00038C0000036C0000034C0000032C000007C
:1000B00030C000002EC000002CC000002AC000008C
:1000C00028C0000026C0000024C0000022C000009C
:1000D00020C000001EC000001CC000001AC00000AC
:1000E00018C0000011241FBECFEFD1E2DEBFCDBF8C
:1000F00000E00CBF12E0A0E0B2E0E8E3F4E000E0D2
:100100000BBF02C007900D92A234B107D9F725D1D9
:1001100091C176CF87B1807F87B9459A469882E0B2
:100120008A95F1F700C0479A92E09A95F1F700C0DE
:1001300086B18295807F92E09A95F1F700C047984A
:1001400095E09A95F1F70000479A92E09A95F1F7B9
:1001500000C096B192E09A95F1F700C0479895E0FB
:100160009A95F1F700008823F4F2459887B18F60E3
:1001700087B90895282F22952F708F70611102C0C2
:10018000469801C0469A92E09A95F1F700C0479AC6
:1001900098B1907F922B98B995E09A95F1F700006D
:1001A000479895E09A95F1F70000479A98B1907FAB
:1001B000892B88B985E08A95F1F70000479895E08A
:1001C0009A95F1F70000A6CF0895CF93C82F2FEF8F
:1001D00086E791E0215080409040E1F700C00000A8
:1001E00087B18F6087B93F9A3E9A3D9A88B1807FE8
:1001F00088B947984598469800C000C00000479AC3
:10020000419A25E02A95F1F70000479885E08A9504
:10021000F1F700007FDF60E08C2F8C60ABDF60E0E7
:1002200088E2A8DFCF910895CF93DF93EC01888116
:10023000882331F0219661E09DDF89918111FBCF08
:10024000DF91CF910895EF92FF920F931F93CF9379
:10025000DF9300D01F921F92CDB7DEB77B01FE0166
:10026000319625E0DF011D922A95E9F7009751F0BC
:1002700035962AE030E0B901B6D08293862F972FC9
:100280000097C9F7BFEFEB16FB0669F4898181116E
:100290001DC0FE01329600E010E00F5F1F4F8191FC
:1002A0008823D9F30FC005E010E00E191F090AC01A
:1002B000F80181918F0161E0805D5CDF0E151F0503
:1002C000B9F711C0053011051CF00DC000E010E0B9
:1002D00081E090E08C0F9D1F080F191F7E0196E0B2
:1002E000E90EF11CE5CF0F900F900F900F900F903B
:1002F000DF91CF911F910F91FF90EF900895883279
:1003000028F46111806460E0806834CF0895E1E8EA
:10031000F0E020812260208320812860208320ED6E
:1003200037E0309389002093880010928500109266
:100330008400B19A1816190654F420E030E0B19BFD
:10034000FECFB19A2F5F3F4F82179307C1F7E1E8C5
:10035000F0E080818D7F80830895CF93DF9383E0E9
:1003600034DF60E081E006DF80E092E05DDF61E0A5
:1003700080E0C5DF8AE092E057DFC0E0D0E061E0D6
:1003800089E0BDDF63E070E0CE015DDF61E08CE01D
:10039000B6DF83E192E048DF88EE93E0B8DF219694
:1003A000C336D10561F760E081E0E4DE85E192E0EB
:1003B0003BDF61E080E0A3DF81E292E035DF88EAA5
:1003C00091E6A5DF60E081E0D5DE88E292E02CDFF7
:1003D00061E080E094DF84E392E026DF80E090E05B
:1003E000DF91CF91089597FB072E16F4009406D065
:1003F00077FD08D00BD007FC05D03EF49095819591
:100400009F4F0895709561957F4F0895AA1BBB1B60
:1004100051E107C0AA1FBB1FA617B70710F0A61B04
:10042000B70B881F991F5A95A9F780959095BC0125
:08043000CD010895F894FFCFFF
:10043800436F6E677261747320004C6F6164696EFC
:10044800672000250048656C6C6F20776F726C64BC
:100458000042792050617400202020206558747271
:10046800656D65002020456C656374726F6E696305
:0204780073000F
:00000001FF
