:1000000071C0000079C0000077C0000075C000001A
:1000100073C0000071C000006FC000006DC0000020
:100020006BC0000069C0000067C0000065C0000030
:1000300063C0000061C000005FC000005DC0000040
:100040005BC0000059C0000057C0000055C0000050
:1000500053C0000051C000004FC000004DC0000060
:100060004BC0000049C0000047C0000045C0000070
:1000700043C0000041C000003FC000003DC0000080
:100080003BC0000039C0000037C0000035C0000090
:1000900033C0000031C000002FC000002DC00000A0
:1000A0002BC0000029C0000027C0000025C00000B0
:1000B00023C0000021C000001FC000001DC00000C0
:1000C0001BC0000019C0000017C0000015C00000D0
:1000D00013C0000011C000000FC000000DC00000E0
:1000E0000BC0000011241FBECFEFD1E2DEBFCDBF99
:1000F00000E00CBF23D07EC083CFAC0120E030E015
:1001000005C091E09A95F1F72F5F3F4F241735070F
:10011000C4F308950F931F93CF93DF938C01C0E036
:10012000D0E004C088EE93E0E8DF2196C017D10745
:10013000CCF3DF91CF911F910F9108958FEF87B985
:10014000C3E0C8B988EC90E0E5DFD7E0D8B988EC27
:1001500090E0E0DF1FE018B988EC90E0DBDF0EE113
:1001600008B988EC90E0D6DF0F2EFCE3FF2EF02DCF
:10017000F8B888EC90E0CEDF0F2EF8E7EF2EF02DE8
:10018000E8B888EC90E0C6DF0F2EF0EFDF2EF02D00
:10019000D8B888EC90E0BEDF0F2EF0EECF2EF02D19
:1001A000C8B888EC90E0B6DF80EC88B988EC90E0C5
:1001B000B1DFC8B888EC90E0ADDFD8B888EC90E04B
:1001C000A9DFE8B888EC90E0A5DFF8B888EC90E00B
:1001D000A1DF08B988EC90E09DDF18B988EC90E0C9
:1001E00099DFD8B988EC90E095DFC8B988EC90E049
:0801F00091DFA4CFF894FFCFCA
:00000001FF
