S01600004D79466972737450726F6A6563742E7372656369
S113000071C0000079C0000077C0000075C0000016
S113001073C0000071C000006FC000006DC000001C
S11300206BC0000069C0000067C0000065C000002C
S113003063C0000061C000005FC000005DC000003C
S11300405BC0000059C0000057C0000055C000004C
S113005053C0000051C000004FC000004DC000005C
S11300604BC0000049C0000047C0000045C000006C
S113007043C0000041C000003FC000003DC000007C
S11300803BC0000039C0000037C0000035C000008C
S113009033C0000031C000002FC000002DC000009C
S11300A02BC0000029C0000027C0000025C00000AC
S11300B023C0000021C000001FC000001DC00000BC
S11300C01BC0000019C0000017C0000015C00000CC
S11300D013C0000011C000000FC000000DC00000DC
S11300E00BC0000011241FBECFEFD1E2DEBFCDBF95
S11300F000E00CBF23D084C083CFAC0120E030E00B
S113010005C091E09A95F1F72F5F3F4F241735070B
S1130110C4F308950F931F93CF93DF938C01C0E032
S1130120D0E004C088EE93E0E8DF2196C017D10741
S1130130CCF3DF91CF911F910F9108958FEF8093AE
S11301400A0181E380930B018FEF87B9C3E0C8B93B
S113015088EC90E0DFDFD7E0D8B988EC90E0DADF14
S11301601FE018B988EC90E0D5DF0EE108B988ECFF
S113017090E0D0DF0F2EFCE3FF2EF02DF8B888ECD2
S113018090E0C8DF0F2EF8E7EF2EF02DE8B888ECEA
S113019090E0C0DF0F2EF0EFDF2EF02DD8B888EC02
S11301A090E0B8DF0F2EF0EECF2EF02DC8B888EC1B
S11301B090E0B0DF80EC88B988EC90E0ABDFC8B8A1
S11301C088EC90E0A7DFD8B888EC90E0A3DFE8B82B
S11301D088EC90E09FDFF8B888EC90E09BDF08B9EA
S11301E088EC90E097DF18B988EC90E093DFD8B9F9
S11301F088EC90E08FDFC8B988EC90E08BDFA4CF67
S1070200F894FFCF9C
S9030000FC
